{
  "_format": "hh-sol-artifact-1",
  "contractName": "Healthcare",
  "sourceName": "contracts/Healthcare.sol",
  "abi": [
    {
      "inputs": [],
      "stateMutability": "nonpayable",
      "type": "constructor"
    },
    {
      "anonymous": false,
      "inputs": [
        {
          "indexed": false,
          "internalType": "address",
          "name": "id",
          "type": "address"
        },
        {
          "indexed": false,
          "internalType": "string",
          "name": "name",
          "type": "string"
        },
        {
          "indexed": false,
          "internalType": "string",
          "name": "specialization",
          "type": "string"
        }
      ],
      "name": "DoctorAuthorized",
      "type": "event"
    },
    {
      "anonymous": false,
      "inputs": [
        {
          "indexed": false,
          "internalType": "address",
          "name": "id",
          "type": "address"
        },
        {
          "indexed": false,
          "internalType": "string",
          "name": "name",
          "type": "string"
        }
      ],
      "name": "PatientRecordAdded",
      "type": "event"
    },
    {
      "anonymous": false,
      "inputs": [
        {
          "indexed": false,
          "internalType": "address",
          "name": "id",
          "type": "address"
        },
        {
          "indexed": false,
          "internalType": "string",
          "name": "name",
          "type": "string"
        }
      ],
      "name": "PatientRecordUpdated",
      "type": "event"
    },
    {
      "inputs": [
        {
          "internalType": "address",
          "name": "_id",
          "type": "address"
        },
        {
          "internalType": "string",
          "name": "_name",
          "type": "string"
        },
        {
          "internalType": "uint256",
          "name": "_age",
          "type": "uint256"
        },
        {
          "internalType": "string",
          "name": "_medicalHistory",
          "type": "string"
        }
      ],
      "name": "addPatientRecord",
      "outputs": [],
      "stateMutability": "nonpayable",
      "type": "function"
    },
    {
      "inputs": [],
      "name": "admin",
      "outputs": [
        {
          "internalType": "address",
          "name": "",
          "type": "address"
        }
      ],
      "stateMutability": "view",
      "type": "function"
    },
    {
      "inputs": [
        {
          "internalType": "address",
          "name": "_doctor",
          "type": "address"
        },
        {
          "internalType": "string",
          "name": "_name",
          "type": "string"
        },
        {
          "internalType": "string",
          "name": "_specialization",
          "type": "string"
        }
      ],
      "name": "authorizeDoctor",
      "outputs": [],
      "stateMutability": "nonpayable",
      "type": "function"
    },
    {
      "inputs": [
        {
          "internalType": "address",
          "name": "",
          "type": "address"
        }
      ],
      "name": "authorizedDoctor",
      "outputs": [
        {
          "internalType": "bool",
          "name": "",
          "type": "bool"
        }
      ],
      "stateMutability": "view",
      "type": "function"
    },
    {
      "inputs": [],
      "name": "doctorCount",
      "outputs": [
        {
          "internalType": "uint256",
          "name": "",
          "type": "uint256"
        }
      ],
      "stateMutability": "view",
      "type": "function"
    },
    {
      "inputs": [
        {
          "internalType": "address",
          "name": "",
          "type": "address"
        }
      ],
      "name": "doctors",
      "outputs": [
        {
          "internalType": "address",
          "name": "id",
          "type": "address"
        },
        {
          "internalType": "string",
          "name": "name",
          "type": "string"
        },
        {
          "internalType": "string",
          "name": "specialization",
          "type": "string"
        }
      ],
      "stateMutability": "view",
      "type": "function"
    },
    {
      "inputs": [
        {
          "internalType": "string",
          "name": "",
          "type": "string"
        },
        {
          "internalType": "uint256",
          "name": "",
          "type": "uint256"
        }
      ],
      "name": "doctorsBySpecialization",
      "outputs": [
        {
          "internalType": "address",
          "name": "",
          "type": "address"
        }
      ],
      "stateMutability": "view",
      "type": "function"
    },
    {
      "inputs": [
        {
          "internalType": "string",
          "name": "_specialization",
          "type": "string"
        }
      ],
      "name": "getDoctorsBySpecialization",
      "outputs": [
        {
          "internalType": "address[]",
          "name": "",
          "type": "address[]"
        }
      ],
      "stateMutability": "view",
      "type": "function"
    },
    {
      "inputs": [
        {
          "internalType": "address",
          "name": "_id",
          "type": "address"
        }
      ],
      "name": "getPatientRecord",
      "outputs": [
        {
          "components": [
            {
              "internalType": "address",
              "name": "id",
              "type": "address"
            },
            {
              "internalType": "string",
              "name": "name",
              "type": "string"
            },
            {
              "internalType": "uint256",
              "name": "age",
              "type": "uint256"
            },
            {
              "internalType": "string",
              "name": "medicalHistory",
              "type": "string"
            }
          ],
          "internalType": "struct Healthcare.Patient",
          "name": "",
          "type": "tuple"
        }
      ],
      "stateMutability": "view",
      "type": "function"
    },
    {
      "inputs": [
        {
          "internalType": "address",
          "name": "",
          "type": "address"
        }
      ],
      "name": "patientRecords",
      "outputs": [
        {
          "internalType": "address",
          "name": "id",
          "type": "address"
        },
        {
          "internalType": "string",
          "name": "name",
          "type": "string"
        },
        {
          "internalType": "uint256",
          "name": "age",
          "type": "uint256"
        },
        {
          "internalType": "string",
          "name": "medicalHistory",
          "type": "string"
        }
      ],
      "stateMutability": "view",
      "type": "function"
    },
    {
      "inputs": [
        {
          "internalType": "address",
          "name": "_id",
          "type": "address"
        },
        {
          "internalType": "string",
          "name": "_name",
          "type": "string"
        },
        {
          "internalType": "uint256",
          "name": "_age",
          "type": "uint256"
        },
        {
          "internalType": "string",
          "name": "_medicalHistory",
          "type": "string"
        }
      ],
      "name": "updatePatientRecord",
      "outputs": [],
      "stateMutability": "nonpayable",
      "type": "function"
    }
  ],
  "bytecode": "0x608060405234801561001057600080fd5b50336000806101000a81548173ffffffffffffffffffffffffffffffffffffffff021916908373ffffffffffffffffffffffffffffffffffffffff160217905550611ed2806100606000396000f3fe608060405234801561001057600080fd5b50600436106100a95760003560e01c8063692e019311610071578063692e01931461017957806378522bc4146101a9578063a9583c22146101c7578063c12f7455146101f9578063c241cdd714610215578063f851a44014610245576100a9565b806308d31e58146100ae57806318607174146100ca578063200a1b91146100fa578063209ca6ec1461012d5780634462417514610149575b600080fd5b6100c860048036038101906100c39190611320565b610263565b005b6100e460048036038101906100df91906113bf565b610470565b6040516100f191906114f3565b60405180910390f35b610114600480360381019061010f91906113bf565b61071e565b604051610124949392919061157d565b60405180910390f35b610147600480360381019061014291906115d0565b61087e565b005b610163600480360381019061015e91906113bf565b610bae565b6040516101709190611676565b60405180910390f35b610193600480360381019061018e9190611691565b610bce565b6040516101a091906116ed565b60405180910390f35b6101b1610c32565b6040516101be9190611708565b60405180910390f35b6101e160048036038101906101dc91906113bf565b610c38565b6040516101f093929190611723565b60405180910390f35b610213600480360381019061020e9190611320565b610d92565b005b61022f600480360381019061022a9190611768565b611024565b60405161023c9190611860565b60405180910390f35b61024d6110d0565b60405161025a91906116ed565b60405180910390f35b600360003373ffffffffffffffffffffffffffffffffffffffff1673ffffffffffffffffffffffffffffffffffffffff16815260200190815260200160002060009054906101000a900460ff166102ef576040517f08c379a00000000000000000000000000000000000000000000000000000000081526004016102e6906118ce565b60405180910390fd5b600073ffffffffffffffffffffffffffffffffffffffff16600160008673ffffffffffffffffffffffffffffffffffffffff1673ffffffffffffffffffffffffffffffffffffffff16815260200190815260200160002060000160009054906101000a900473ffffffffffffffffffffffffffffffffffffffff1673ffffffffffffffffffffffffffffffffffffffff16036103c0576040517f08c379a00000000000000000000000000000000000000000000000000000000081526004016103b79061193a565b60405180910390fd5b6000600160008673ffffffffffffffffffffffffffffffffffffffff1673ffffffffffffffffffffffffffffffffffffffff1681526020019081526020016000209050838160010190816104149190611b66565b508281600201819055508181600301908161042f9190611b66565b507f39670a98fa0d3298968910c2495fe9c535a25a73a63e02229479fd1318535dfc8585604051610461929190611c38565b60405180910390a15050505050565b6104786110f4565b600073ffffffffffffffffffffffffffffffffffffffff16600160008473ffffffffffffffffffffffffffffffffffffffff1673ffffffffffffffffffffffffffffffffffffffff16815260200190815260200160002060000160009054906101000a900473ffffffffffffffffffffffffffffffffffffffff1673ffffffffffffffffffffffffffffffffffffffff1603610549576040517f08c379a00000000000000000000000000000000000000000000000000000000081526004016105409061193a565b60405180910390fd5b600160008373ffffffffffffffffffffffffffffffffffffffff1673ffffffffffffffffffffffffffffffffffffffff1681526020019081526020016000206040518060800160405290816000820160009054906101000a900473ffffffffffffffffffffffffffffffffffffffff1673ffffffffffffffffffffffffffffffffffffffff1673ffffffffffffffffffffffffffffffffffffffff1681526020016001820180546105f990611989565b80601f016020809104026020016040519081016040528092919081815260200182805461062590611989565b80156106725780601f1061064757610100808354040283529160200191610672565b820191906000526020600020905b81548152906001019060200180831161065557829003601f168201915b505050505081526020016002820154815260200160038201805461069590611989565b80601f01602080910402602001604051908101604052809291908181526020018280546106c190611989565b801561070e5780601f106106e35761010080835404028352916020019161070e565b820191906000526020600020905b8154815290600101906020018083116106f157829003601f168201915b5050505050815250509050919050565b60016020528060005260406000206000915090508060000160009054906101000a900473ffffffffffffffffffffffffffffffffffffffff169080600101805461076790611989565b80601f016020809104026020016040519081016040528092919081815260200182805461079390611989565b80156107e05780601f106107b5576101008083540402835291602001916107e0565b820191906000526020600020905b8154815290600101906020018083116107c357829003601f168201915b5050505050908060020154908060030180546107fb90611989565b80601f016020809104026020016040519081016040528092919081815260200182805461082790611989565b80156108745780601f1061084957610100808354040283529160200191610874565b820191906000526020600020905b81548152906001019060200180831161085757829003601f168201915b5050505050905084565b60008054906101000a900473ffffffffffffffffffffffffffffffffffffffff1673ffffffffffffffffffffffffffffffffffffffff163373ffffffffffffffffffffffffffffffffffffffff161461090c576040517f08c379a000000000000000000000000000000000000000000000000000000000815260040161090390611cda565b60405180910390fd5b600360008473ffffffffffffffffffffffffffffffffffffffff1673ffffffffffffffffffffffffffffffffffffffff16815260200190815260200160002060009054906101000a900460ff1615610999576040517f08c379a000000000000000000000000000000000000000000000000000000000815260040161099090611d46565b60405180910390fd5b60405180606001604052808473ffffffffffffffffffffffffffffffffffffffff16815260200183815260200182815250600260008573ffffffffffffffffffffffffffffffffffffffff1673ffffffffffffffffffffffffffffffffffffffff16815260200190815260200160002060008201518160000160006101000a81548173ffffffffffffffffffffffffffffffffffffffff021916908373ffffffffffffffffffffffffffffffffffffffff1602179055506020820151816001019081610a659190611b66565b506040820151816002019081610a7b9190611b66565b509050506001600360008573ffffffffffffffffffffffffffffffffffffffff1673ffffffffffffffffffffffffffffffffffffffff16815260200190815260200160002060006101000a81548160ff021916908315150217905550600481604051610ae79190611da2565b9081526020016040518091039020839080600181540180825580915050600190039060005260206000200160009091909190916101000a81548173ffffffffffffffffffffffffffffffffffffffff021916908373ffffffffffffffffffffffffffffffffffffffff16021790555060056000815480929190610b6990611de8565b91905055507f91c9b0638903073a8140d368a76d44a039d189441b24420fb9ffe61233af33c5838383604051610ba193929190611723565b60405180910390a1505050565b60036020528060005260406000206000915054906101000a900460ff1681565b6004828051602081018201805184825260208301602085012081835280955050505050508181548110610c0057600080fd5b906000526020600020016000915091509054906101000a900473ffffffffffffffffffffffffffffffffffffffff1681565b60055481565b60026020528060005260406000206000915090508060000160009054906101000a900473ffffffffffffffffffffffffffffffffffffffff1690806001018054610c8190611989565b80601f0160208091040260200160405190810160405280929190818152602001828054610cad90611989565b8015610cfa5780601f10610ccf57610100808354040283529160200191610cfa565b820191906000526020600020905b815481529060010190602001808311610cdd57829003601f168201915b505050505090806002018054610d0f90611989565b80601f0160208091040260200160405190810160405280929190818152602001828054610d3b90611989565b8015610d885780601f10610d5d57610100808354040283529160200191610d88565b820191906000526020600020905b815481529060010190602001808311610d6b57829003601f168201915b5050505050905083565b600360003373ffffffffffffffffffffffffffffffffffffffff1673ffffffffffffffffffffffffffffffffffffffff16815260200190815260200160002060009054906101000a900460ff16610e1e576040517f08c379a0000000000000000000000000000000000000000000000000000000008152600401610e15906118ce565b60405180910390fd5b600073ffffffffffffffffffffffffffffffffffffffff16600160008673ffffffffffffffffffffffffffffffffffffffff1673ffffffffffffffffffffffffffffffffffffffff16815260200190815260200160002060000160009054906101000a900473ffffffffffffffffffffffffffffffffffffffff1673ffffffffffffffffffffffffffffffffffffffff1614610eef576040517f08c379a0000000000000000000000000000000000000000000000000000000008152600401610ee690611e7c565b60405180910390fd5b60405180608001604052808573ffffffffffffffffffffffffffffffffffffffff16815260200184815260200183815260200182815250600160008673ffffffffffffffffffffffffffffffffffffffff1673ffffffffffffffffffffffffffffffffffffffff16815260200190815260200160002060008201518160000160006101000a81548173ffffffffffffffffffffffffffffffffffffffff021916908373ffffffffffffffffffffffffffffffffffffffff1602179055506020820151816001019081610fc19190611b66565b50604082015181600201556060820151816003019081610fe19190611b66565b509050507f5bf4fbd0a415439cfc927a948a5366e59cfaf99989124634aac6a6712f7dbe2e8484604051611016929190611c38565b60405180910390a150505050565b60606004826040516110369190611da2565b90815260200160405180910390208054806020026020016040519081016040528092919081815260200182805480156110c457602002820191906000526020600020905b8160009054906101000a900473ffffffffffffffffffffffffffffffffffffffff1673ffffffffffffffffffffffffffffffffffffffff168152602001906001019080831161107a575b50505050509050919050565b60008054906101000a900473ffffffffffffffffffffffffffffffffffffffff1681565b6040518060800160405280600073ffffffffffffffffffffffffffffffffffffffff1681526020016060815260200160008152602001606081525090565b6000604051905090565b600080fd5b600080fd5b600073ffffffffffffffffffffffffffffffffffffffff82169050919050565b600061117182611146565b9050919050565b61118181611166565b811461118c57600080fd5b50565b60008135905061119e81611178565b92915050565b600080fd5b600080fd5b6000601f19601f8301169050919050565b7f4e487b7100000000000000000000000000000000000000000000000000000000600052604160045260246000fd5b6111f7826111ae565b810181811067ffffffffffffffff82111715611216576112156111bf565b5b80604052505050565b6000611229611132565b905061123582826111ee565b919050565b600067ffffffffffffffff821115611255576112546111bf565b5b61125e826111ae565b9050602081019050919050565b82818337600083830152505050565b600061128d6112888461123a565b61121f565b9050828152602081018484840111156112a9576112a86111a9565b5b6112b484828561126b565b509392505050565b600082601f8301126112d1576112d06111a4565b5b81356112e184826020860161127a565b91505092915050565b6000819050919050565b6112fd816112ea565b811461130857600080fd5b50565b60008135905061131a816112f4565b92915050565b6000806000806080858703121561133a5761133961113c565b5b60006113488782880161118f565b945050602085013567ffffffffffffffff81111561136957611368611141565b5b611375878288016112bc565b93505060406113868782880161130b565b925050606085013567ffffffffffffffff8111156113a7576113a6611141565b5b6113b3878288016112bc565b91505092959194509250565b6000602082840312156113d5576113d461113c565b5b60006113e38482850161118f565b91505092915050565b6113f581611166565b82525050565b600081519050919050565b600082825260208201905092915050565b60005b8381101561143557808201518184015260208101905061141a565b60008484015250505050565b600061144c826113fb565b6114568185611406565b9350611466818560208601611417565b61146f816111ae565b840191505092915050565b611483816112ea565b82525050565b60006080830160008301516114a160008601826113ec565b50602083015184820360208601526114b98282611441565b91505060408301516114ce604086018261147a565b50606083015184820360608601526114e68282611441565b9150508091505092915050565b6000602082019050818103600083015261150d8184611489565b905092915050565b61151e81611166565b82525050565b600082825260208201905092915050565b6000611540826113fb565b61154a8185611524565b935061155a818560208601611417565b611563816111ae565b840191505092915050565b611577816112ea565b82525050565b60006080820190506115926000830187611515565b81810360208301526115a48186611535565b90506115b3604083018561156e565b81810360608301526115c58184611535565b905095945050505050565b6000806000606084860312156115e9576115e861113c565b5b60006115f78682870161118f565b935050602084013567ffffffffffffffff81111561161857611617611141565b5b611624868287016112bc565b925050604084013567ffffffffffffffff81111561164557611644611141565b5b611651868287016112bc565b9150509250925092565b60008115159050919050565b6116708161165b565b82525050565b600060208201905061168b6000830184611667565b92915050565b600080604083850312156116a8576116a761113c565b5b600083013567ffffffffffffffff8111156116c6576116c5611141565b5b6116d2858286016112bc565b92505060206116e38582860161130b565b9150509250929050565b60006020820190506117026000830184611515565b92915050565b600060208201905061171d600083018461156e565b92915050565b60006060820190506117386000830186611515565b818103602083015261174a8185611535565b9050818103604083015261175e8184611535565b9050949350505050565b60006020828403121561177e5761177d61113c565b5b600082013567ffffffffffffffff81111561179c5761179b611141565b5b6117a8848285016112bc565b91505092915050565b600081519050919050565b600082825260208201905092915050565b6000819050602082019050919050565b60006117e983836113ec565b60208301905092915050565b6000602082019050919050565b600061180d826117b1565b61181781856117bc565b9350611822836117cd565b8060005b8381101561185357815161183a88826117dd565b9750611845836117f5565b925050600181019050611826565b5085935050505092915050565b6000602082019050818103600083015261187a8184611802565b905092915050565b7f4e6f7420617574686f72697a6564000000000000000000000000000000000000600082015250565b60006118b8600e83611524565b91506118c382611882565b602082019050919050565b600060208201905081810360008301526118e7816118ab565b9050919050565b7f50617469656e7420646f6573206e6f7420657869737400000000000000000000600082015250565b6000611924601683611524565b915061192f826118ee565b602082019050919050565b6000602082019050818103600083015261195381611917565b9050919050565b7f4e487b7100000000000000000000000000000000000000000000000000000000600052602260045260246000fd5b600060028204905060018216806119a157607f821691505b6020821081036119b4576119b361195a565b5b50919050565b60008190508160005260206000209050919050565b60006020601f8301049050919050565b600082821b905092915050565b600060088302611a1c7fffffffffffffffffffffffffffffffffffffffffffffffffffffffffffffffff826119df565b611a2686836119df565b95508019841693508086168417925050509392505050565b6000819050919050565b6000611a63611a5e611a59846112ea565b611a3e565b6112ea565b9050919050565b6000819050919050565b611a7d83611a48565b611a91611a8982611a6a565b8484546119ec565b825550505050565b600090565b611aa6611a99565b611ab1818484611a74565b505050565b5b81811015611ad557611aca600082611a9e565b600181019050611ab7565b5050565b601f821115611b1a57611aeb816119ba565b611af4846119cf565b81016020851015611b03578190505b611b17611b0f856119cf565b830182611ab6565b50505b505050565b600082821c905092915050565b6000611b3d60001984600802611b1f565b1980831691505092915050565b6000611b568383611b2c565b9150826002028217905092915050565b611b6f826113fb565b67ffffffffffffffff811115611b8857611b876111bf565b5b611b928254611989565b611b9d828285611ad9565b600060209050601f831160018114611bd05760008415611bbe578287015190505b611bc88582611b4a565b865550611c30565b601f198416611bde866119ba565b60005b82811015611c0657848901518255600182019150602085019450602081019050611be1565b86831015611c235784890151611c1f601f891682611b2c565b8355505b6001600288020188555050505b505050505050565b6000604082019050611c4d6000830185611515565b8181036020830152611c5f8184611535565b90509392505050565b7f4f6e6c792061646d696e2063616e2063616c6c20746869732066756e6374696f60008201527f6e00000000000000000000000000000000000000000000000000000000000000602082015250565b6000611cc4602183611524565b9150611ccf82611c68565b604082019050919050565b60006020820190508181036000830152611cf381611cb7565b9050919050565b7f446f63746f7220697320616c726561647920617574686f72697a656400000000600082015250565b6000611d30601c83611524565b9150611d3b82611cfa565b602082019050919050565b60006020820190508181036000830152611d5f81611d23565b9050919050565b600081905092915050565b6000611d7c826113fb565b611d868185611d66565b9350611d96818560208601611417565b80840191505092915050565b6000611dae8284611d71565b915081905092915050565b7f4e487b7100000000000000000000000000000000000000000000000000000000600052601160045260246000fd5b6000611df3826112ea565b91507fffffffffffffffffffffffffffffffffffffffffffffffffffffffffffffffff8203611e2557611e24611db9565b5b600182019050919050565b7f50617469656e7420616c72656164792065786973747300000000000000000000600082015250565b6000611e66601683611524565b9150611e7182611e30565b602082019050919050565b60006020820190508181036000830152611e9581611e59565b905091905056fea2646970667358221220d9cefcb715789fadb806226cbd34d862665cd153cfecd0ac1c91b0679b778d0b64736f6c63430008180033",
  "linkReferences": {},
  "deployedLinkReferences": {}
}